:100000000C9434000C943E000C943E000C943E0082
:100010000C943E000C943E000C943E000C943E0068
:100020000C943E000C943E000C943E000C943E0058
:100030000C943E000C943E000C943E000C943E0048
:100040000C943E000C943E000C943E000C943E0038
:100050000C943E000C943E000C943E000C943E0028
:100060000C943E000C943E0011241FBECFEFD8E04C
:10007000DEBFCDBF0E9440000C949D000C94000098
:1000800014B88CE185B98CEF8AB983E084B993B157
:1000900092FBFF27F0F993B193FB992790F983B175
:1000A00082958170DF2ED92A220F220F2BB9A82F1B
:1000B000B0E0EE0FEE0FEE0FEBB90F2F10E0E92ED0
:1000C000F12C9801209530952E213F21ED01C0950E
:1000D000D0954295407F4BB96295660F607E6BB9B3
:1000E000A7014095509540235123BE0164237523F9
:1000F0008D01022313230295000F000F007C0BB922
:100100004A235B232C233D232795222727952BB9B0
:100110009F23E92FF0E0EC23FD232D2D30E02095E7
:1001200030952A233B2325B99823292F8D2990E048
:0E01300080959095880F85B9AACFF894FFCFDF
:00000001FF
